:100000000C9434000C9451000C9451000C94510049
:100010000C94AC010C9451000C9451000C945100C0
:100020000C9451000C9451000C9451000C94560304
:100030000C9451000C9451000C9451000C945100FC
:100040000C9451000C9451000C9451000C945100EC
:100050000C9451000C9451000C9451000C945100DC
:100060000C9451000C94510011241FBECFEFD8E026
:10007000DEBFCDBF11E0A0E0B1E0E8E2FFE002C0EA
:1000800005900D92A23CB107D9F721E0A2ECB1E0B6
:1000900001C01D92AE3CB207E1F70E949A030C9496
:1000A00092070C9400009BB19F709BB99BB1807F1D
:1000B000892B8BB9299A299A29980895CF93C82F0B
:1000C00028980E9453008C2F8295807F0E945300B5
:1000D0008FE39FE10197F1F700C00000CF910895F1
:1000E000811104C080E8860F0C945E0080ECFBCF89
:1000F00084B1836084B98AB1806F8AB98FE59AEE42
:100100000197F1F700C0000080E30E9453008FE1E7
:100110009EE40197F1F700C0000080E30E945300C5
:100120008FED91E00197F1F700C0000080E30E949D
:10013000530080E20E9453008FE39FE10197F1F7A3
:1001400000C0000088E20E945E008FE00C945E0018
:10015000CF93C82F289A0E9453008C2F8295807FBE
:100160000E9453008FE39FE10197F1F700C0000068
:10017000CF910895CF93DF93EC018991811103C052
:10018000DF91CF9108950E94A800F7CF0F931F939E
:10019000CF93DF93CDB7DEB72A970FB6F894DEBFC3
:1001A0000FBECDBF81E00E945E0089EA91E00E940F
:1001B000BA0087E08F9380ED8F931F9286E18F9333
:1001C0001F9283E08F938FEA91E09F938F931F920A
:1001D0008AE08F938E010F5F1F4F1F930F930E9432
:1001E000AD0483EC0E945E00C8010E94BA002FEFAC
:1001F00083ED90E3215080409040E1F700C0000083
:100200000FB6F894DEBF0FBECDBF2A960FB6F89496
:10021000DEBF0FBECDBFDF91CF911F910F9108952B
:1002200080917D0180580E945E002FEF81EE94E066
:10023000215080409040E1F700C00000E091C201F1
:10024000F091C301EE0FFF1FEC5CFE4F80819181A6
:100250000C94BA0080917D0180540E945E002FEFC3
:1002600081EE94E0215080409040E1F700C0000012
:1002700060917D0170917E018091C2019091C301D6
:100280000C942202ECE7F0E080818F7780838081FC
:1002900080648083AAE7B0E08C9187608C93808132
:1002A000806280838C9180688C93089590917C000B
:1002B000907F90937C0090917C008F70892B80932D
:1002C0007C0080917A00806480937A0080917A002B
:1002D00086FDFCCF809179000895282F30E0CB0176
:1002E0000A97281739073CF1665F7F4F621773073B
:1002F00014F16FEF83EC99E0615080409040E1F79A
:1003000000C0000081E090E0BA016A507109261730
:10031000370784F0465F5F4F421753075CF02FEFBB
:1003200063EC89E0215060408040E1F700C00000AC
:1003300081E090E0089590E080E0E6CF88B18262AD
:1003400088B9E8E6F0E0808182608083ECE6F0E046
:1003500080818262808308951F920F920FB60F9260
:1003600011242F938F939F9386B1982F927090931F
:10037000CD0180728093CA012091CB0121110CC064
:10038000992321F081E08093CC0122C0882361F180
:1003900082E08093CC0106C0213081F491110AC023
:1003A0001092CC018091C2019091C3010097A9F1F4
:1003B000019716C08823C1F083E0E5CF223029F5EC
:1003C000992311F083E0E5CF81110EC01092CC018A
:1003D0008091C2019091C30189319105F0F4019699
:1003E0009093C3018093C2018091CC01281729F01A
:1003F00091E09093C4018093CB019F918F912F91B5
:100400000F900FBE0F901F901895911102C082E0BF
:10041000BACF8111E9CF81E0BCCF8091CC01E8CF88
:100420009C01215031092C30310530F00D970C978B
:1004300030F090E080E0089583E090E0089584E05B
:1004400090E008950F931F93CF93DF9300D0CDB723
:10045000DEB70E9410020097F9F09F938F9385EB0F
:1004600091E09F938F931F9282E08F938E010F5F95
:100470001F4F1F930F930E94AD04C8010E94BA0042
:100480000FB6F894DEBF0FBECDBF0F900F90DF9177
:10049000CF911F910F91089583E891E00E94BA00D7
:1004A000F4CFEF92FF920F931F93CF93DF9361E00E
:1004B00070E090E080E00E94700080918001D0E0C8
:1004C000C0E0813051F0C7E0D0E0823031F0CEE0C2
:1004D000D0E0833011F0CFEFDFEFC859DE4F01E0FD
:1004E00010E0E990F12CB80190E080E00E947000EB
:1004F000F701EE0FFF1FEC5CFE4F808191810E949F
:10050000BA00B80181E090E00E947000B801C70114
:100510000E9422020E5F1F4F0F30110511F7DF916D
:10052000CF911F910F91FF90EF90089580918001DE
:100530008130A1F470E060E090E080E00E94700003
:1005400083E891E00E94BA006FE070E090E080E004
:100550000E94700088EB91E00C94BA00823049F45C
:1005600070E060E090E080E00E9470008AEB91E033
:10057000E9CF833099F46FE070E090E080E00E9472
:10058000700083E891E00E94BA0070E060E090E0C3
:1005900080E00E9470008AEB91E0DECF089570E069
:1005A00060E081E090E00E947000809180018130E5
:1005B00021F48CEB91E00C94BA00823019F48EEBAC
:1005C00091E0F9CF833019F480EC91E0F4CF0895F5
:1005D0000E94CF020E9496020C945102249A089520
:1005E000E1E8F0E0808188608083EFE6F0E08081E0
:1005F000826080830895E1E8F0E0808181608083FB
:100600000895E1E8F0E080818E7F80830895880F6F
:10061000991FFC01E050FF4F808191819093C901A7
:100620008093C8018091C8019091C901892B69F418
:100630002FEF89E698E1215080409040E1F700C01B
:10064000000081E08093810108958091C80190911C
:10065000C901880F991F689F9001699F300D11246F
:1006600050E040E060E074E284EF90E00E946C04AF
:1006700030938900209388000C94FB02CF93DF9382
:100680000E94F002C8E6D1E0899190E020918101BA
:100690002223E1F31092810161E00E94070381E0CF
:1006A000CC37D80789F7DF91CF9108951F920F9229
:1006B0000FB60F9211242F933F934F935F936F9335
:1006C0007F938F939F93AF93BF93EF93FF9380910B
:1006D000C6019091C70101969093C7018093C6010E
:1006E0002091C6013091C7018091C8019091C90144
:1006F00028173907D0F01092C7011092C60181E087
:10070000809381010E940103FF91EF91BF91AF910E
:100710009F918F917F916F915F914F913F912F9119
:100720000F900FBE0F901F90189585B190E189270B
:1007300085B9EACF0E9478000E9442010E949E0182
:100740000E94EE0278940E94C60081E00E945E0042
:100750000E94E80286B1982F92709093CD0180722A
:100760008093CA018091CA0181114EC08091CD0150
:1007700081114AC01092CB018091CB018093CC01B2
:10078000C1E083E0982E01E010E0D2E09DE0E92E88
:10079000F12C60917D0180E00E9470008091C50184
:1007A000882321F00E94E8021092C50180E00E9497
:1007B0005601882E48E650E06CE970E00E946D0119
:1007C0005C0144E350E070E060E0882D0E946D0120
:1007D0006C0148E15CEF6DEC70E0882D0E946D01CA
:1007E000AB2809F451C060917D0170917E016230A7
:1007F000710514F16250710970937E0160937D015F
:1008000080E00E94700027C08091CA01811108C059
:100810008091CD01882321F081E08093CB01ACCF82
:100820008091CA01882331F08091CD01811102C0ED
:1008300082E0F3CF83E0F1CF6130710561F4809104
:1008400080018230D1F4C093C501C0937F01F09242
:100850007E01E0927D018091C401882349F01092CD
:10086000C4010E94100160917D0180E00E9470002F
:1008700080917F01809380018CCF833061F7C0939A
:10088000C501D0937F01E3CFCD2809F160917D01AF
:1008900070917E016D3071051CF46E5F7F4FACCF9F
:1008A0006D307105C1F680918001813049F48093EB
:1008B000C501D0937F0110937E0100937D01CBCFC2
:1008C000823049F6C093C50190927F01F4CF892B05
:1008D00011F20E943E03BFCF052E97FB1EF4009439
:1008E0000E94830457FD07D00E948B0407FC03D0AD
:1008F0004EF40C94830450954095309521953F4FCC
:100900004F4F5F4F089590958095709561957F4FFB
:100910008F4F9F4F0895A1E21A2EAA1BBB1BFD010A
:100920000DC0AA1FBB1FEE1FFF1FA217B307E407CE
:10093000F50720F0A21BB30BE40BF50B661F771F26
:10094000881F991F1A9469F7609570958095909506
:100950009B01AC01BD01CF010895AEE0B0E0E3EB37
:10096000F4E00C9469070D891E898F89988D26E023
:100970002C831A83098397FF02C080E090E80197D7
:100980009E838D83AE01455E5F4F698D7A8DCE016A
:1009900001960E94DD044D815E8157FD0AC02F81C2
:1009A0003885421753070CF49A01020F131FF80100
:1009B00010822E96E4E00C948507ABE0B0E0E3EE05
:1009C000F4E00C945B077C013B018A01FC01178277
:1009D0001682838181FFC8C1CE0101965C01F701B7
:1009E0009381F30193FD859193FF81913F018823CA
:1009F00009F453C1853239F493FD859193FF8191B8
:100A00003F01853229F4B70190E00E94CD06E7CF7F
:100A1000912C212C312CFFE1F31538F08B3211F1A0
:100A200090F4803209F1833229F137FC3CC020ED8B
:100A3000280F2A3050F536FE20C08AE0989E200DFF
:100A40001124922E06C08D3291F0803371F7689494
:100A500030F8F30193FD859193FF81913F0181115E
:100A6000DACF21C0689431F8689432F8F2CF6894F4
:100A700033F8EFCF689434F8ECCFEAE02E9E200DE7
:100A80001124222E689435F8E4CF8E3229F436FCF6
:100A900004C1689436F8DDCF8C3619F4689437F8C1
:100AA000D8CF8836B1F2982F9F7D95549330E0F0DF
:100AB0008336A1F18337C1F1833509F063C0280182
:100AC000F2E04F0E511CF801C080D180692D70E01A
:100AD00036FC02C06FEF7FEFC6010E94B7064C01E3
:100AE000689437F882010AC00C5F1F4FFFE3F98357
:100AF00088248394912C6501E89437F833FE2DC047
:100B0000522C8114910471F5552009F468CFB70176
:100B100080E290E00E94CD065A94F6CFF8018081E1
:100B200089830E5F1F4FE4CF2801F2E04F0E511C66
:100B3000F801C080D180692D70E036FC02C06FEFF3
:100B40007FEFC6010E94C2064C018201D5CFB701DA
:100B500080E290E00E94CD062A942814190409F03E
:100B6000B0F7CECFF60137FC859137FE81916F014A
:100B7000B70190E00E94CD0651105A94F1E08F1A0F
:100B80009108BFCF843619F0893609F077C0F80193
:100B900037FE6BC060817181828193810C5F1F4F32
:100BA000F32DFF763F2E97FF09C0909580957095A5
:100BB00061957F4F8F4F9F4F689437F82AE030E060
:100BC000A5010E94FD06C82ECA188C2C432C36FEA7
:100BD0000CC0E89440F8C91440F434FE05C032FC5F
:100BE00003C0F32DFE7E4F2E892C44FE95C0FE01DE
:100BF000EC0DF11D8081803309F087C0242D297E02
:100C0000422E842D8870582E43FC95C040FE8FC024
:100C10009C2C821418F42C0C922C981844FE91C031
:100C2000B70180E390E00E94CD0642FE09C088E74C
:100C300090E041FE02C088E590E0B7010E94CD0639
:100C4000C91408F48AC0CA94D12C9FEFC91AD90AD2
:100C5000CA0CDB1CF60182916F01B70190E00E9483
:100C6000CD06AC14BD04B1F74FCF60817181072E62
:100C7000000C880B990B0E5F1F4F92CFD32CE8947A
:100C8000D4F82AE030E0853739F1232D297FD22EA0
:100C90008F3601F148F48835A9F0F70186819781F4
:100CA0002B96E2E10C947707803749F08837A9F753
:100CB000D4FE02C06894D2F820E130E00DC0689400
:100CC000D4F8F6CF34FE03C0822F8660D82E20E100
:100CD00032E002C028E030E0F801D7FE0FC06081AA
:100CE0007181828193810C5F1F4FA5010E94FD06D7
:100CF000C82ECA183D2CE89437F867CF60817181FF
:100D000090E080E00E5F1F4FF0CF42FC02C0839462
:100D100078CF8394839475CF842D867809F471CF2E
:100D2000F6CFB70180E290E00E94CD068394821452
:100D3000C0F3512C73CF522C5818821408F46ECF84
:100D4000F8CF842D867809F47BCF8BE241FE80E2D8
:100D500047FC8DE2B70190E071CFB70180E390E0EE
:100D60000E94CD069A946CCF8FEF9FEF99CFFC0134
:100D70000590615070400110D8F7809590958E0FC6
:100D80009F1F0895FC016150704001900110D8F739
:100D9000809590958E0F9F1F08950F931F93CF936B
:100DA000DF93182F092FEB018B8181FD09C01FEF05
:100DB0000FEF812F902FDF91CF911F910F91089509
:100DC00082FF14C02E813F818C819D8128173907B5
:100DD0003CF4E881F981CF010196998388831083DF
:100DE0008E819F8101969F838E83E3CFE885F9856D
:100DF000812F0995892BA1F3DACFFA01AA27283090
:100E000051F1203181F1E8946F936E7F6E5F7F4FD7
:100E10008F4F9F4FAF4FB1E03ED0B4E03CD0670F53
:100E2000781F891F9A1FA11D680F791F8A1F911DA6
:100E3000A11D6A0F711D811D911DA11D20D009F4F6
:100E400068943F912AE0269F11243019305D319338
:100E5000DEF6CF010895462F4770405D4193B3E021
:100E60000FD0C9F7F6CF462F4F70405D4A3318F0C8
:100E7000495D31FD4052419302D0A9F7EACFB4E079
:100E8000A6959795879577956795BA95C9F7009731
:100E90006105710508959B01AC010A2E06945795D2
:100EA000479537952795BA95C9F7620F731F841F29
:100EB000951FA01D08952F923F924F925F926F92BF
:100EC0007F928F929F92AF92BF92CF92DF92EF92DA
:100ED000FF920F931F93CF93DF93CDB7DEB7CA1B5B
:100EE000DB0B0FB6F894DEBF0FBECDBF09942A8886
:100EF000398848885F846E847D848C849B84AA842E
:100F0000B984C884DF80EE80FD800C811B81AA81BA
:100F1000B981CE0FD11D0FB6F894DEBF0FBECDBF85
:080F2000ED010895F894FFCFE4
:100F2800000083008B0093009C00A500B000B9006E
:100F3800C400D000DC00E900F70006011501260115
:100F480037014A015D01720188019F01B801D20190
:100F5800EE010B028201850188018B018E0191014E
:100F6800940197019A019D01A001A301A6018501A1
:100F780088018B018E019101940197019A019D01CD
:100F8800A001A301A6018501111112141412110F59
:100F98000D0D0F11110F0F000000000000010001DE
:100FA8000101202000432000432300442000442363
:100FB8000045200046200046230047200047230024
:100FC8004120004123004220004A656E6E610025E1
:100FD800642F25642F2564003E003C003100320058
:020FE8003300D4
:00000001FF
