:100000000C9434000C9451000C9451000C94510049
:100010000C9456010C9451000C9451000C94510016
:100020000C9451000C9451000C9451000C94430119
:100030000C9451000C9451000C9451000C945100FC
:100040000C9451000C9451000C9451000C945100EC
:100050000C9451000C9451000C9451000C945100DC
:100060000C9451000C94510011241FBECFEFD8E026
:10007000DEBFCDBF11E0A0E0B1E0E4E5FDE002C0ED
:1000800005900D92AE3BB107D9F721E0AEEBB1E0A0
:1000900001C01D92A73CB207E1F70E94EE020C944A
:1000A000A8060C9400000F931F93CF93DF9300D00A
:1000B000CDB7DEB79C01215031092C30310570F0ED
:1000C0000D970C9728F189E891E00E943C020F906F
:1000D0000F90DF91CF911F910F91089583E01F92B0
:1000E0008F938BEB91E09F938F931F9282E08F937E
:1000F0008E010F5F1F4F1F930F930E94C303C80110
:100100000E943C020FB6F894DEBF0FBECDBFDFCF1A
:1001100084E0E5CFEF92FF920F931F93CF93DF938D
:1001200061E080E00E94F20180917D01D0E0C0E0BA
:10013000813071F080917D01C7E0D0E0823041F0E4
:1001400080917D01CEE0D0E0833011F0CFEFDFEF82
:10015000C050DF4F01E010E0E990F12C602F80E00B
:100160000E94F201F701EE0FFF1FE75BFE4F808157
:1001700091810E943C02602F81E00E94F201B8014F
:10018000C7010E9453000E5F1F4F0F30110521F76A
:10019000DF91CF911F910F91FF90EF900895809183
:1001A0007D01813081F460E080E00E94F20189E805
:1001B00091E00E943C026FE080E00E94F2018EE735
:1001C00091E00C943C0280917D01823039F460E032
:1001D00080E00E94F20180E891E0EBCF80917D0108
:1001E000833079F46FE080E00E94F20189E891E0C9
:1001F0000E943C0260E080E00E94F20180E891E011
:10020000E0CF089560E081E00E94F20180917D01DD
:10021000813021F482E891E00C943C0280917D01D0
:10022000823019F484E891E0F7CF80917D0183302A
:1002300019F486E891E0F0CF08950E9402010E942F
:10024000CF000C948A0008959C01E1E8F0E09081D1
:1002500098609083AFE6B0E09C9192609C9330935D
:100260008900209388008081846080830895E1E87C
:10027000F0E08081836080830895E1E8F0E0808190
:100280008C7F808308951F920F920FB60F921124D6
:100290008F938091C2018F5F8093C2018091C201D0
:1002A0008F910F900FBE0F901F9018951F920F9275
:1002B0000FB60F9211248F939F9386B1982F92704F
:1002C0009093C60180728093C3018091C401811113
:1002D00011C08091C601882321F081E08093C5017F
:1002E00035C08091C301882309F43FC082E0809328
:1002F000C5010AC08091C4018130C1F48091C6015A
:1003000081110EC01092C5018091BF019091C00172
:10031000892B59F18091BF019091C001019721C0B3
:100320008091C301882309F183E0D8CF8091C40173
:10033000823079F58091C601882311F083E0D7CF10
:100340008091C301811111C01092C5018091BF013C
:100350009091C001499748F48091BF019091C001EC
:1003600001969093C0018093BF019091C501809147
:10037000C401981739F081E08093C1018091C501D3
:100380008093C4019F918F910F900FBE0F901F908B
:1003900018958091C601811102C082E09FCF8091A3
:1003A000C3018111E2CF81E0A2CF9BB19F709BB9C5
:1003B0009BB1807F892B8BB9299A299A2998089516
:1003C000CF93C82F28980E94D5018C2F8295807FCB
:1003D0000E94D5018FE39FE10197F1F700C0000073
:1003E000CF910895811104C080E8860F0C94E0013C
:1003F00080ECFBCF84B1836084B98AB1806F8AB905
:100400008FE59AEE0197F1F700C0000080E30E94AB
:10041000D5018FE19EE40197F1F700C0000080E371
:100420000E94D5018FED91E00197F1F700C0000027
:1004300080E30E94D50180E20E94D5018FE39FE115
:100440000197F1F700C0000088E20E94E0018FE010
:100450000C94E001CF93C82F289A0E94D5018C2FCD
:100460008295807F0E94D5018FE39FE10197F1F78C
:1004700000C00000CF910895CF93DF93EC018991E4
:10048000811103C0DF91CF9108950E942A02F7CF16
:100490000F931F93CF93DF93CDB7DEB72A970FB695
:1004A000F894DEBF0FBECDBF81E00E94E0018FEA6D
:1004B00091E00E943C0287E08F9380ED8F931F9222
:1004C00086E18F931F9283E08F9385EB91E09F935A
:1004D0008F931F928AE08F938E010F5F1F4F1F93A0
:1004E0000F930E94C30383EC0E94E001C8010E94A5
:1004F0003C022FEF83ED90E3215080409040E1F7E4
:1005000000C000000FB6F894DEBF0FBECDBF2A9624
:100510000FB6F894DEBF0FBECDBFDF91CF911F9114
:100520000F910895ECE7F0E080818F7780838081E0
:1005300080648083AAE7B0E08C9187608C9380818F
:10054000806280838C9180688C93089590917C0068
:10055000907F90937C0090917C008F70892B80938A
:100560007C0080917A00806480937A0080917A0088
:1005700086FDFCCF809179000895282F30E0CB01D3
:100580000A97281739073CF1665F7F4F6217730798
:1005900014F16FEF83EC99E0615080409040E1F7F7
:1005A00000C0000081E090E0BA016A50710926178E
:1005B000370784F0465F5F4F421753075CF02FEF19
:1005C00063EC89E0215060408040E1F700C000000A
:1005D00081E090E0089590E080E0E6CF0E94FA018B
:1005E0000E94920288B1826288B98091680082601C
:1005F0008093680080916C00826280936C00789494
:100600000E94480281E00E94E0010E941D0186B123
:10061000982F92709093C60180728093C30180914D
:10062000C301811165C08091C601811161C0109222
:10063000C4018091C4018093C50111E0C1E0D0E004
:1006400001E0FC2E6C2F80E00E94F2018091BE013F
:10065000882321F00E941D011092BE018091C101EA
:100660008823F9F01092C1016F2D80E00E94F20101
:100670002FEF81EE94E0215080409040E1F700C0E0
:100680000000E091BF01F091C001EE0FFF1FE75B9A
:10069000FE4F808191810E943C026F2D80E00E947C
:1006A000F20180E00E94A602E82EF12C48E650E01C
:1006B0006CE970E0C7010E94BD025C0144E350E0B8
:1006C00070E060E0C7010E94BD026C0148E15CEF90
:1006D0006DEC70E0C7010E94BD02AB28C1F1C230D1
:1006E000D105F4F022976C2F80E00E94F20124C023
:1006F0008091C301811108C08091C601882321F037
:1007000081E08093C40195CF8091C301882331F0AB
:100710008091C601811102C082E0F3CF83E0F1CF66
:10072000C130D10549F480917D01823041F40093BC
:10073000BE0111E0CDE0D0E010937D0182CF809129
:100740007D018330C9F70093BE0112E0F3CFCD28BD
:1007500099F3CD30D10514F42296C5CFCD30D10513
:1007600059F780917D01813031F48093BE0112E010
:10077000C1E0D0E0E1CF80917D018230E9F60093C5
:10078000BE0113E0F5CFAEE0B0E0E9ECF3E00C948D
:100790007F060D891E898F89988D26E02C831A8308
:1007A000098397FF02C080E090E801979E838D83C4
:1007B000AE01455E5F4F698D7A8DCE0101960E9434
:1007C000F3034D815E8157FD0AC02F8138854217A2
:1007D00053070CF49A01020F131FF80110822E9692
:1007E000E4E00C949B06ABE0B0E0E9EFF3E00C949E
:1007F00071067C013B018A01FC011782168283810C
:1008000081FFC8C1CE0101965C01F7019381F3011C
:1008100093FD859193FF81913F01882309F453C192
:10082000853239F493FD859193FF81913F018532A3
:1008300029F4B70190E00E94E305E7CF912C212C29
:10084000312CFFE1F31538F08B3211F190F4803246
:1008500009F1833229F137FC3CC020ED280F2A3002
:1008600050F536FE20C08AE0989E200D1124922E6D
:1008700006C08D3291F0803371F7689430F8F3013F
:1008800093FD859193FF81913F018111DACF21C0C2
:10089000689431F8689432F8F2CF689433F8EFCF67
:1008A000689434F8ECCFEAE02E9E200D1124222E1D
:1008B000689435F8E4CF8E3229F436FC04C168948C
:1008C00036F8DDCF8C3619F4689437F8D8CF8836EF
:1008D000B1F2982F9F7D95549330E0F08336A1F1CB
:1008E0008337C1F1833509F063C02801F2E04F0E70
:1008F000511CF801C080D180692D70E036FC02C027
:100900006FEF7FEFC6010E94CD054C01689437F868
:1009100082010AC00C5F1F4FFFE3F9838824839490
:10092000912C6501E89437F833FE2DC0522C8114C8
:10093000910471F5552009F468CFB70180E290E089
:100940000E94E3055A94F6CFF801808189830E5FF7
:100950001F4FE4CF2801F2E04F0E511CF801C08078
:10096000D180692D70E036FC02C06FEF7FEFC601C9
:100970000E94D8054C018201D5CFB70180E290E0FA
:100980000E94E3052A942814190409F0B0F7CECF89
:10099000F60137FC859137FE81916F01B70190E038
:1009A0000E94E30551105A94F1E08F1A9108BFCFCD
:1009B000843619F0893609F077C0F80137FE6BC02C
:1009C00060817181828193810C5F1F4FF32DFF76CF
:1009D0003F2E97FF09C090958095709561957F4F48
:1009E0008F4F9F4F689437F82AE030E0A5010E94AE
:1009F0001306C82ECA188C2C432C36FE0CC0E89463
:100A000040F8C91440F434FE05C032FC03C0F32D95
:100A1000FE7E4F2E892C44FE95C0FE01EC0DF11D8B
:100A20008081803309F087C0242D297E422E842DB9
:100A30008870582E43FC95C040FE8FC09C2C8214B9
:100A400018F42C0C922C981844FE91C0B70180E346
:100A500090E00E94E30542FE09C088E790E041FE75
:100A600002C088E590E0B7010E94E305C91408F4CC
:100A70008AC0CA94D12C9FEFC91AD90ACA0CDB1CB0
:100A8000F60182916F01B70190E00E94E305AC147A
:100A9000BD04B1F74FCF60817181072E000C880B28
:100AA000990B0E5F1F4F92CFD32CE894D4F82AE015
:100AB00030E0853739F1232D297FD22E8F3601F191
:100AC00048F48835A9F0F701868197812B96E2E1F9
:100AD0000C948D06803749F08837A9F7D4FE02C000
:100AE0006894D2F820E130E00DC06894D4F8F6CFD5
:100AF00034FE03C0822F8660D82E20E132E002C08F
:100B000028E030E0F801D7FE0FC06081718182815A
:100B100093810C5F1F4FA5010E941306C82ECA18AF
:100B20003D2CE89437F867CF6081718190E080E0D8
:100B30000E5F1F4FF0CF42FC02C0839478CF8394A6
:100B4000839475CF842D867809F471CFF6CFB701E1
:100B500080E290E00E94E30583948214C0F3512C5C
:100B600073CF522C5818821408F46ECFF8CF842D0E
:100B7000867809F47BCF8BE241FE80E247FC8DE270
:100B8000B70190E071CFB70180E390E00E94E305E8
:100B90009A946CCF8FEF9FEF99CFFC010590615035
:100BA00070400110D8F7809590958E0F9F1F089583
:100BB000FC016150704001900110D8F7809590952C
:100BC0008E0F9F1F08950F931F93CF93DF93182FBE
:100BD000092FEB018B8181FD09C01FEF0FEF812FE2
:100BE000902FDF91CF911F910F91089582FF14C034
:100BF0002E813F818C819D81281739073CF4E88143
:100C0000F981CF0101969983888310838E819F811A
:100C100001969F838E83E3CFE885F985812F09951F
:100C2000892BA1F3DACFFA01AA27283051F120311C
:100C300081F1E8946F936E7F6E5F7F4F8F4F9F4F70
:100C4000AF4FB1E03ED0B4E03CD0670F781F891FB2
:100C50009A1FA11D680F791F8A1F911DA11D6A0F80
:100C6000711D811D911DA11D20D009F468943F9133
:100C70002AE0269F11243019305D3193DEF6CF0132
:100C80000895462F4770405D4193B3E00FD0C9F7F8
:100C9000F6CF462F4F70405D4A3318F0495D31FD65
:100CA0004052419302D0A9F7EACFB4E0A6959795B8
:100CB000879577956795BA95C9F70097610571058E
:100CC00008959B01AC010A2E0694579547953795D8
:100CD0002795BA95C9F7620F731F841F951FA01D32
:100CE00008952F923F924F925F926F927F928F92D0
:100CF0009F92AF92BF92CF92DF92EF92FF920F93AB
:100D00001F93CF93DF93CDB7DEB7CA1BDB0B0FB6B4
:100D1000F894DEBF0FBECDBF09942A883988488871
:100D20005F846E847D848C849B84AA84B984C88407
:100D3000DF80EE80FD800C811B81AA81B981CE0FFE
:100D4000D11D0FB6F894DEBF0FBECDBFED010895E3
:040D5000F894FFCF45
:100D5400111112141412110F0D0D0F11110F0F0098
:100D64000000000000000083008B0093009C00A59D
:100D740000B000B900C400D000DC00E900F70006B0
:100D8400011501260137014A015D01720188019FA5
:100D940001B801D201EE010B0288018B018E019191
:100DA40001940197019A019D01A001A301A601A943
:100DB40001AC018B018E019101940197019A019D6F
:100DC40001A001A301A601A901AC018B01013E0010
:100DD4003C00310032003300202000432000432334
:100DE4000044200044230045200046200046230000
:100DF4004720004723004120004123004220004AAD
:0E0E0400656E6E610025642F25642F25640045
:00000001FF
