:100000000C9434000C9451000C9451000C94510049
:100010000C9408020C9451000C9451000C94510063
:100020000C9451000C9469040C9451000C940C0431
:100030000C9451000C9451000C9451000C945100FC
:100040000C9451000C9451000C9451000C945100EC
:100050000C9451000C9451000C9451000C945100DC
:100060000C9451000C94510011241FBECFEFD8E026
:10007000DEBFCDBF11E0A0E0B1E0E2EEF1E102C0F1
:1000800005900D92AA3CB107D9F721E0AAECB1E0A6
:1000900001C01D92A63FB207E1F70E9491040C94A3
:1000A000EF080C9400009BB19F709BB99BB1807FBF
:1000B000892B8BB9299A299A29980895CF93C82F0B
:1000C00028980E9453008C2F8295807F0E945300B5
:1000D0008FE39FE10197F1F700C00000CF910895F1
:1000E000811104C080E8860F0C945E0080ECFBCF89
:1000F00084B1836084B98AB1806F8AB98FE59AEE42
:100100000197F1F700C0000080E30E9453008FE1E7
:100110009EE40197F1F700C0000080E30E945300C5
:100120008FED91E00197F1F700C0000080E30E949D
:10013000530080E20E9453008FE39FE10197F1F7A3
:1001400000C0000088E20E945E008FE00C945E0018
:10015000CF93C82F289A0E9453008C2F8295807FBE
:100160000E9453008FE39FE10197F1F700C0000068
:10017000CF910895CF93DF93EC018991811103C052
:10018000DF91CF9108950E94A800F7CF0F931F939E
:10019000CF93DF93CDB7DEB72A970FB6F894DEBFC3
:1001A0000FBECDBF81E00E945E0081EB91E00E9416
:1001B000BA0087E08F9380ED8F931F9286E18F9333
:1001C0001F9283E08F9387EB91E09F938F931F9211
:1001D0008AE08F938E010F5F1F4F1F930F930E9432
:1001E000D80583EC0E945E00C8010E94BA002FEF80
:1001F00083ED90E3215080409040E1F700C0000083
:100200000FB6F894DEBF0FBECDBF2A960FB6F89496
:10021000DEBF0FBECDBFDF91CF911F910F9108952B
:1002200080917D0180580E945E002FEF81EE94E066
:10023000215080409040E1F700C00000E091CB01E8
:10024000F091CC01EE0FFF1FEC5CFE4F808191819D
:100250000C94BA00CF93DF93CDE7D1E0888180542E
:100260000E945E002FEF81EE94E02150804090408C
:10027000E1F700C0000060917D0170917E018091E6
:10028000CB019091CC010E94870288818058DF9138
:10029000CF910C945E00ECE7F0E080818F77808353
:1002A000808180648083AAE7B0E08C9187608C9322
:1002B0008081806280838C9180688C930895909176
:1002C0007C00907F90937C0090917C008F70892BB4
:1002D00080937C0080917A00806480937A00809182
:1002E0007A0086FDFCCF809179000895282F30E0B8
:1002F000CB010A97281739073CF1665F7F4F6217D9
:10030000730714F16FEF83EC99E0615080409040E7
:10031000E1F700C0000081E090E0BA016A50710985
:100320002617370784F0465F5F4F421753075CF08C
:100330002FEF63EC89E0215060408040E1F700C07E
:10034000000081E090E0089590E080E0E6CFEF9239
:10035000FF920F931F93CF938091D3010E945F016F
:10036000C82F40918501509186016091870170915D
:1003700088010E9476017C014091830150918401A3
:100380006091D1017091D2018C2F0E9476018C0175
:10039000609181017091820148E15CEF8C2F0E9495
:1003A00076019C0181E0EF2829F4012B19F4232B1D
:1003B00009F480E0CF911F910F91FF90EF90089585
:1003C00088B1826288B9E8E6F0E08081826080834B
:1003D000ECE6F0E0808182628083089586B1982FF8
:1003E00092709093F50180728093DD0181110AC0B3
:1003F00081E091110AC01092DE018091DE018093AC
:10040000DF01089582E0911183E08093DE01F5CF52
:100410001F920F920FB60F9211242F938F939F93D9
:1004200086B1982F92709093F50180728093DD01D0
:100430002091DE0121110CC0992321F081E08093ED
:10044000DF0122C0882361F182E08093DF0106C0D2
:10045000213081F491110AC01092DF018091CB010B
:100460009091CC010097A9F1019716C08823C1F0A3
:1004700083E0E5CF223029F5992311F083E0E5CF21
:1004800081110EC01092DF018091CB019091CC01BF
:1004900089319105F0F401969093CC018093CB01C2
:1004A0008091DF01281729F091E09093CD0180938E
:1004B000DE019F918F912F910F900FBE0F901F9093
:1004C0001895911102C082E0BACF8111E9CF81E085
:1004D000BCCF8091DF01E8CF0097C1F09C01215093
:1004E00031092C30310550F02C5031092C303105B8
:1004F00040F0499749F485E090E0089583E090E06A
:10050000089584E090E0089590E080E008950F93CE
:100510001F93CF93DF9300D0CDB7DEB70E946C025C
:100520000097F9F09F938F938DEB91E09F938F93BA
:100530001F9282E08F938E010F5F1F4F1F930F93C7
:100540000E94D805C8010E94BA000FB6F894DEBF19
:100550000FBECDBF0F900F90DF91CF911F910F91E4
:1005600008958BE891E00E94BA00F4CFEF92FF92D9
:100570000F931F93CF93DF9361E070E090E080E0F2
:100580000E94700080918001D0E0C0E0813051F085
:10059000C7E0D0E0823031F0CEE0D0E0833011F01F
:1005A000CFEFDFEFC859DE4F01E010E0E990F12C0A
:1005B000B80190E080E00E947000F701EE0FFF1F8D
:1005C000EC5CFE4F808191810E94BA00B80181E00D
:1005D00090E00E947000B801C7010E9487020E5F80
:1005E0001F4F0F30110511F7DF91CF911F910F9120
:1005F000FF90EF900895809180018130A1F470E028
:1006000060E090E080E00E9470008BE891E00E9442
:10061000BA006FE070E090E080E00E94700080EC33
:1006200091E00C94BA00823049F470E060E090E010
:1006300080E00E94700082EC91E0E9CF833099F471
:100640006FE070E090E080E00E9470008BE891E045
:100650000E94BA0070E060E090E080E00E947000CC
:1006600082EC91E0DECF089570E060E081E090E000
:100670000E94700080918001813021F484EC91E02F
:100680000C94BA00823019F486EC91E0F9CF8330F3
:1006900019F488EC91E0F4CF08950E9434030E948D
:1006A000FB020C94B602249A0895E1E8F0E0808100
:1006B00088608083EFE6F0E0808182608083089527
:1006C000E1E8F0E08081816080830895E1E8F0E076
:1006D00080818E7F80830895A8E6B1E080E0ED916F
:1006E000F0E0EE0FFF1FE050FF4F20813181232B00
:1006F00009F48F5F91E0AD37B90789F70895880F46
:10070000991FFC01E050FF4F808191819093DC01A3
:100710008093DB018091DB019091DC01892B69F4EE
:100720002FEF89E698E1215080409040E1F700C02A
:10073000000081E08093890108958091DB01909110
:10074000DC01880F991F689F9001699F300D11246B
:1007500050E040E060E074E284EF90E00E94970592
:1007600030938900209388000C946003DF92EF920D
:10077000FF920F931F93CF93DF930E9455030E9424
:100780006C0305E1081B98E6E92E91E0F92EDD24C3
:10079000DA9410E0F701C1917F01D0E080918901E6
:1007A0008823E1F31092890161E0CE010E947F036A
:1007B000CC0FDD1FC050DF4F88819981892B39F123
:1007C0002091D7013091D8012F5F3F4F3093D8014E
:1007D0002093D701D29EC001D39E900D1124B80161
:1007E0000E9483057093CF016093CE01FDE7EF1661
:1007F000F1E0FF0679F61092D8011092D701DF914F
:10080000CF911F910F91FF90EF90DF90089510927C
:10081000CF011092CE01EACF1F920F920FB60F9226
:1008200011242F933F934F935F936F937F938F93F5
:100830009F93AF93BF93EF93FF938091D9019091D2
:10084000DA0101969093DA018093D9012091D901C0
:100850003091DA018091DB019091DC012817390792
:10086000D0F01092DA011092D90181E080938901D1
:100870000E946603FF91EF91BF91AF919F918F917D
:100880007F916F915F914F913F912F910F900FBE8C
:100890000F901F90189585B190E1892785B9EACF0F
:1008A000239AE0EBF0E0808183608083A0E7B0E0F2
:1008B0008C9181608C9380818068808380818F7B24
:1008C00080831092B300E1EBF0E08081826080834E
:1008D00008951F920F920FB60F9211248F9380915B
:1008E000CE018093B3008F910F900FBE0F901F9099
:1008F0001895E0EEF1E081918A3130F481E0E53F36
:10090000F807C9F781E0089580E00895E0EEF1E08E
:10091000A8E6B1E081918D9381E0E53FF807D1F73A
:1009200008950E9478000E944B010E94E0010E94FD
:1009300053030E94500478940E94C6000E94EE0166
:100940000E94A70181110DC045E150E064E670E00E
:1009500080EE91E00E9486080E94790481110E9435
:10096000860481E00E945E000E944D03C1E043E0E6
:10097000942E01E010E0D2E05DE0E52EF12C6091D4
:100980007D0180E00E9470008091D001882321F0D9
:100990000E944D031092D0018091CD01882369F00F
:1009A000C093CA011092CD010E9410010E942A0139
:1009B00060917D0180E00E9470008091D3010E94CF
:1009C0005F01882E409185015091860160918701D9
:1009D000709188010E9476015C01409183015091E1
:1009E00084016091D1017091D201882D0E9476011D
:1009F0006C01609181017091820148E15CEF882D6A
:100A00000E947601AB2861F160917D0170917E01B9
:100A10006230710554F06250710970937E016093E9
:100A20007D0180E00E9470000FC06130710561F4AB
:100A300080918001823069F4C093D001C0937F011E
:100A4000F0927E01E0927D0180917F018093800190
:100A500096CF8330C9F7C093D001D0937F01F0CFF8
:100A6000CD2809F160917D0170917E016D30710595
:100A70001CF46E5F7F4FD1CF6D30710529F78091E7
:100A80008001813049F48093D001D0937F0110938D
:100A90007E0100937D01D8CF8230B1F6C093D001A2
:100AA00090927F01F4CF892B79F28091CA0188233B
:100AB000F9F01092CA018091800127E0823021F084
:100AC0002EE0833009F020E06091CB017091CC01E1
:100AD00040917D0150917E01CA01019797FDCA01A5
:100AE0009595879588599E4F820F911DFC016083D3
:100AF00045E150E064E670E088E691E00E949608E7
:100B00000E94B603A1CFAA1BBB1B51E107C0AA1FBD
:100B1000BB1FA617B70710F0A61BB70B881F991F9E
:100B20005A95A9F780959095BC01CD010895052EA1
:100B300097FB1EF400940E94AE0557FD07D00E945B
:100B4000B60507FC03D04EF40C94AE0550954095C5
:100B5000309521953F4F4F4F5F4F08959095809569
:100B6000709561957F4F8F4F9F4F0895A1E21A2E88
:100B7000AA1BBB1BFD010DC0AA1FBB1FEE1FFF1F41
:100B8000A217B307E407F50720F0A21BB30BE40B91
:100B9000F50B661F771F881F991F1A9469F76095D8
:100BA0007095809590959B01AC01BD01CF01089592
:100BB000AEE0B0E0EEEDF5E00C94C6080D891E89BC
:100BC0008F89988D26E02C831A83098397FF02C0B2
:100BD00080E090E801979E838D83AE01455E5F4F74
:100BE000698D7A8DCE0101960E9408064D815E8145
:100BF00057FD0AC02F813885421753070CF49A011C
:100C0000020F131FF80110822E96E4E00C94E20804
:100C1000ABE0B0E0EEE0F6E00C94B8087C013B01FC
:100C20008A01FC0117821682838181FFC8C1CE012F
:100C300001965C01F7019381F30193FD859193FF88
:100C400081913F01882309F453C1853239F493FD22
:100C5000859193FF81913F01853229F4B70190E09E
:100C60000E94F807E7CF912C212C312CFFE1F315DE
:100C700038F08B3211F190F4803209F1833229F18E
:100C800037FC3CC020ED280F2A3050F536FE20C03E
:100C90008AE0989E200D1124922E06C08D3291F08C
:100CA000803371F7689430F8F30193FD859193FFD9
:100CB00081913F018111DACF21C0689431F86894A5
:100CC00032F8F2CF689433F8EFCF689434F8ECCF71
:100CD000EAE02E9E200D1124222E689435F8E4CFF0
:100CE0008E3229F436FC04C1689436F8DDCF8C3698
:100CF00019F4689437F8D8CF8836B1F2982F9F7DD1
:100D000095549330E0F08336A1F18337C1F18335F8
:100D100009F063C02801F2E04F0E511CF801C080B9
:100D2000D180692D70E036FC02C06FEF7FEFC60105
:100D30000E94E2074C01689437F882010AC00C5FF8
:100D40001F4FFFE3F98388248394912C6501E89475
:100D500037F833FE2DC0522C8114910471F55520C3
:100D600009F468CFB70180E290E00E94F8075A9436
:100D7000F6CFF801808189830E5F1F4FE4CF2801F1
:100D8000F2E04F0E511CF801C080D180692D70E057
:100D900036FC02C06FEF7FEFC6010E94ED074C01E9
:100DA0008201D5CFB70180E290E00E94F8072A9433
:100DB0002814190409F0B0F7CECFF60137FC85915D
:100DC00037FE81916F01B70190E00E94F807511042
:100DD0005A94F1E08F1A9108BFCF843619F0893602
:100DE00009F077C0F80137FE6BC0608171818281A4
:100DF00093810C5F1F4FF32DFF763F2E97FF09C0A5
:100E000090958095709561957F4F8F4F9F4F689417
:100E100037F82AE030E0A5010E942808C82ECA1839
:100E20008C2C432C36FE0CC0E89440F8C91440F4D6
:100E300034FE05C032FC03C0F32DFE7E4F2E892CFC
:100E400044FE95C0FE01EC0DF11D8081803309F058
:100E500087C0242D297E422E842D8870582E43FC75
:100E600095C040FE8FC09C2C821418F42C0C922C40
:100E7000981844FE91C0B70180E390E00E94F80703
:100E800042FE09C088E790E041FE02C088E590E09C
:100E9000B7010E94F807C91408F48AC0CA94D12C7B
:100EA0009FEFC91AD90ACA0CDB1CF60182916F01A7
:100EB000B70190E00E94F807AC14BD04B1F74FCF22
:100EC00060817181072E000C880B990B0E5F1F4FFC
:100ED00092CFD32CE894D4F82AE030E0853739F16A
:100EE000232D297FD22E8F3601F148F48835A9F0C1
:100EF000F701868197812B96E2E10C94D408803724
:100F000049F08837A9F7D4FE02C06894D2F820E1EE
:100F100030E00DC06894D4F8F6CF34FE03C0822FC1
:100F20008660D82E20E132E002C028E030E0F801EF
:100F3000D7FE0FC060817181828193810C5F1F4F4A
:100F4000A5010E942808C82ECA183D2CE89437F83D
:100F500067CF6081718190E080E00E5F1F4FF0CF1E
:100F600042FC02C0839478CF8394839475CF842D00
:100F7000867809F471CFF6CFB70180E290E00E9445
:100F8000F80783948214C0F3512C73CF522C581855
:100F9000821408F46ECFF8CF842D867809F47BCFC5
:100FA0008BE241FE80E247FC8DE2B70190E071CF19
:100FB000B70180E390E00E94F8079A946CCF8FEF1E
:100FC0009FEF99CFFC010590615070400110D8F758
:100FD000809590958E0F9F1F0895FC016150704081
:100FE00001900110D8F7809590958E0F9F1F08955E
:100FF0000F931F93CF93DF93182F092FEB018B8152
:1010000081FD09C01FEF0FEF812F902FDF91CF914E
:101010001F910F91089582FF14C02E813F818C8112
:101020009D81281739073CF4E881F981CF010196A9
:101030009983888310838E819F8101969F838E83FD
:10104000E3CFE885F985812F0995892BA1F3DACFC4
:10105000FA01AA27283051F1203181F1E8946F93E9
:101060006E7F6E5F7F4F8F4F9F4FAF4FB1E03ED08F
:10107000B4E03CD0670F781F891F9A1FA11D680F2D
:10108000791F8A1F911DA11D6A0F711D811D911D60
:10109000A11D20D009F468943F912AE0269F1124D5
:1010A0003019305D3193DEF6CF010895462F477039
:1010B000405D4193B3E00FD0C9F7F6CF462F4F7094
:1010C000405D4A3318F0495D31FD4052419302D0F2
:1010D000A9F7EACFB4E0A695979587957795679598
:1010E000BA95C9F700976105710508959B01AC0198
:1010F0000A2E06945795479537952795BA95C9F7BF
:10110000620F731F841F951FA01D0895DC01CB0182
:10111000FC01F999FECF06C0F2BDE1BDF89A319607
:1011200000B40D9241505040B8F70895DC01A40F6F
:10113000B51F4150504048F0CB01840F951F2E91B0
:101140000E94A70841505040D0F70895262FF999E2
:10115000FECF92BD81BDF89A019700B4021639F016
:101160001FBA20BD0FB6F894FA9AF99A0FBE0895E7
:101170002F923F924F925F926F927F928F929F92A7
:10118000AF92BF92CF92DF92EF92FF920F931F9395
:10119000CF93DF93CDB7DEB7CA1BDB0B0FB6F89446
:1011A000DEBF0FBECDBF09942A88398848885F8486
:1011B0006E847D848C849B84AA84B984C884DF80F7
:1011C000EE80FD800C811B81AA81B981CE0FD11DDB
:1011D0000FB6F894DEBF0FBECDBFED010895F894B1
:0211E000FFCF3F
:1011E200000083008B0093009C00A500B000B900B2
:1011F200C400D000DC00E900F70006011501260159
:1012020037014A015D01720188019F01B801D201D3
:10121200EE010B028A018D01900193019601990161
:101222009C019F01A201A501A801AB01AE018D01A4
:1012320090019301960199019C019F01A201A501D0
:10124200A801AB01AE018D01110012141412110F8D
:101252000D0D0F11110F0F00000000000001000121
:1012620001CD00340068009C0001202000432000D2
:10127200432300442000442300452000462000462A
:101282002300472000472300412000412300422041
:10129200004A656E6E610025642F25642F25640067
:0A12A2003E003C0031003200330032
:00000001FF
