:100000000C9434000C9451000C9451000C94510049
:100010000C94AD010C9451000C9451000C945100BF
:100020000C9451000C9451000C9451000C947300EA
:100030000C9451000C9451000C9451000C945100FC
:100040000C9451000C9451000C9451000C945100EC
:100050000C9451000C9451000C9451000C945100DC
:100060000C9451000C94510011241FBECFEFD8E026
:10007000DEBFCDBF11E0A0E0B1E0E4E2FDE002C0F0
:1000800005900D92AE3BB107D9F721E0AEEBB1E0A0
:1000900001C01D92A73CB207E1F70E94E5020C9453
:1000A00090060C94000008959C01E1E8F0E0908136
:1000B00098609083AFE6B0E09C9192609C933093FF
:1000C0008900209388008081846080830895E1E81E
:1000D000F0E08081836080830895E1E8F0E0808132
:1000E0008C7F808308951F920F920FB60F92112478
:1000F0008F938091C1018F5F8093C1018091C10175
:100100008F910F900FBE0F901F9018959BB19F700D
:100110009BB99BB1807F892B8BB9299A299A299801
:100120000895CF93C82F28980E9486008C2F82951F
:10013000807F0E9486008FE39FE10197F1F700C066
:100140000000CF910895811104C080E8860F0C94BF
:10015000910080ECFBCF84B1836084B98AB1806F59
:100160008AB98FE59AEE0197F1F700C0000080E3AD
:100170000E9486008FE19EE40197F1F700C0000025
:1001800080E30E9486008FED91E00197F1F700C0B7
:10019000000080E30E94860080E20E9486008FE3D8
:1001A0009FE10197F1F700C0000088E20E949100F2
:1001B0008FE00C949100CF93C82F289A0E9486005C
:1001C0008C2F8295807F0E9486008FE39FE10197AC
:1001D000F1F700C00000CF910895CF93DF93EC01B9
:1001E0008991811103C0DF91CF9108950E94DB00B6
:1001F000F7CF0F931F93CF93DF93CDB7DEB72A9737
:100200000FB6F894DEBF0FBECDBF81E00E94910013
:1002100085EA91E00E94ED0087E08F9380ED8F9357
:100220001F9286E18F931F9283E08F938BEA91E078
:100230009F938F931F928AE08F938E010F5F1F4FC2
:100240001F930F930E94AB0383EC0E949100C8019F
:100250000E94ED002FEF83ED90E32150804090400D
:10026000E1F700C000000FB6F894DEBF0FBECDBFAF
:100270002A960FB6F894DEBF0FBECDBFDF91CF91A7
:100280001F910F910895ECE7F0E080818F778083D4
:10029000808180648083AAE7B0E08C9187608C9332
:1002A0008081806280838C9180688C930895909186
:1002B0007C00907F90937C0090917C008F70892BC4
:1002C00080937C0080917A00806480937A00809192
:1002D0007A0086FDFCCF809179000895282F30E0C8
:1002E000CB010A97281739073CF1665F7F4F6217E9
:1002F000730714F16FEF83EC99E0615080409040F8
:10030000E1F700C0000081E090E0BA016A50710995
:100310002617370784F0465F5F4F421753075CF09C
:100320002FEF63EC89E0215060408040E1F700C08E
:10033000000081E090E0089590E080E0E6CF88B191
:10034000826288B9E8E6F0E0808182608083ECE632
:10035000F0E080818262808308951F920F920FB631
:100360000F9211242F938F939F9386B1982F9270A1
:100370009093C60180728093C3012091C401211122
:100380000CC0992321F081E08093C50122C088230D
:1003900061F182E08093C50106C0213081F49111A2
:1003A0000AC01092C5018091BE019091BF010097D3
:1003B000A9F1019716C08823C1F083E0E5CF223070
:1003C00029F5992311F083E0E5CF81110EC0109239
:1003D000C5018091BE019091BF0189319105F0F472
:1003E00001969093BF018093BE018091C5012817AB
:1003F00029F091E09093C0018093C4019F918F9167
:100400002F910F900FBE0F901F901895911102C061
:1004100082E0BACF8111E9CF81E0BCCF8091C501E4
:10042000E8CF0F931F93CF93DF9300D0CDB7DEB704
:100430009C01215031092C30310570F00D970C973B
:1004400028F18FE791E00E94ED000F900F90DF916F
:10045000CF911F910F91089583E01F928F9381EBAD
:1004600091E09F938F931F9282E08F938E010F5F95
:100470001F4F1F930F930E94AB03C8010E94ED0012
:100480000FB6F894DEBF0FBECDBFDFCF84E0E5CF5F
:10049000EF92FF920F931F93CF93DF9361E070E091
:1004A00090E080E00E94A30080917D01D0E0C0E058
:1004B000813051F0C7E0D0E0823031F0CEE0D0E0C2
:1004C000833011F0CFEFDFEFC859DE4F01E010E0CD
:1004D000E990F12CB80190E080E00E94A300F701C0
:1004E000EE0FFF1FEC5CFE4F808191810E94ED00BA
:1004F000B80181E090E00E94A300B801C7010E940A
:1005000011020E5F1F4F0F30110511F7DF91CF91D0
:100510001F910F91FF90EF90089580917D018130A0
:10052000A1F470E060E090E080E00E94A3008FE71B
:1005300091E00E94ED006FE070E090E080E00E94AA
:10054000A30084EB91E00C94ED00823049F470E05C
:1005500060E090E080E00E94A30086EB91E0E9CFAC
:10056000833099F46FE070E090E080E00E94A30097
:100570008FE791E00E94ED0070E060E090E080E0A5
:100580000E94A30086EB91E0DECF089570E060E06A
:1005900081E090E00E94A30080917D01813021F4F0
:1005A00088EB91E00C94ED00823019F48AEB91E035
:1005B000F9CF833019F48CEB91E0F4CF08950E94C9
:1005C000C6020E948D020C9448020E94AB000E9459
:1005D00043010E949F0178940E94F90081E00E94EB
:1005E00091000E94DF0286B1982F92709093C6010D
:1005F00080728093C3018091C301811165C0809195
:10060000C601811161C01092C4018091C401809320
:10061000C50111E0C1E0D0E001E0FC2E6C2F80E0CC
:100620000E94A3008091C201882321F00E94DF0272
:100630001092C2018091C0018823F9F01092C0018C
:100640006F2D80E00E94A3002FEF81EE94E02150F7
:1006500080409040E1F700C00000E091BE01F091C1
:10066000BF01EE0FFF1FEC5CFE4F808191810E9465
:10067000ED006F2D80E00E94A30080E00E945701F2
:10068000E82EF12C48E650E06CE970E0C7010E94CA
:100690006E015C0144E350E070E060E0C7010E943D
:1006A0006E016C0148E15CEF6DEC70E0C7010E94E7
:1006B0006E01AB28B1F1C230D105F4F022976C2F56
:1006C00080E00E94A30024C08091C301811108C072
:1006D0008091C601882321F081E08093C40195CFE9
:1006E0008091C301882331F08091C601811102C03D
:1006F00082E0F3CF83E0F1CFC130D10549F480919E
:100700007D01823041F40093C20111E0CDE0D0E0E0
:1007100010937D0182CF8330D9F70093C20112E09C
:10072000F5CFCD28A9F3CD30D10514F42296C7CF4B
:10073000CD30D10569F780917D01813031F480930E
:10074000C20112E0C1E0D0E0E3CF823009F70093AC
:10075000C20113E0F7CFAEE0B0E0E1EBF3E00C94C0
:1007600067060D891E898F89988D26E02C831A8350
:10077000098397FF02C080E090E801979E838D83F4
:10078000AE01455E5F4F698D7A8DCE0101960E9464
:10079000DB034D815E8157FD0AC02F8138854217EA
:1007A00053070CF49A01020F131FF80110822E96C2
:1007B000E4E00C948306ABE0B0E0E1EEF3E00C94EF
:1007C00059067C013B018A01FC0117821682838154
:1007D00081FFC8C1CE0101965C01F7019381F3014D
:1007E00093FD859193FF81913F01882309F453C1C3
:1007F000853239F493FD859193FF81913F018532D4
:1008000029F4B70190E00E94CB05E7CF912C212C71
:10081000312CFFE1F31538F08B3211F190F4803276
:1008200009F1833229F137FC3CC020ED280F2A3032
:1008300050F536FE20C08AE0989E200D1124922E9D
:1008400006C08D3291F0803371F7689430F8F3016F
:1008500093FD859193FF81913F018111DACF21C0F2
:10086000689431F8689432F8F2CF689433F8EFCF97
:10087000689434F8ECCFEAE02E9E200D1124222E4D
:10088000689435F8E4CF8E3229F436FC04C16894BC
:1008900036F8DDCF8C3619F4689437F8D8CF88361F
:1008A000B1F2982F9F7D95549330E0F08336A1F1FB
:1008B0008337C1F1833509F063C02801F2E04F0EA0
:1008C000511CF801C080D180692D70E036FC02C057
:1008D0006FEF7FEFC6010E94B5054C01689437F8B1
:1008E00082010AC00C5F1F4FFFE3F98388248394C1
:1008F000912C6501E89437F833FE2DC0522C8114F9
:10090000910471F5552009F468CFB70180E290E0B9
:100910000E94CB055A94F6CFF801808189830E5F3F
:100920001F4FE4CF2801F2E04F0E511CF801C080A8
:10093000D180692D70E036FC02C06FEF7FEFC601F9
:100940000E94C0054C018201D5CFB70180E290E042
:100950000E94CB052A942814190409F0B0F7CECFD1
:10096000F60137FC859137FE81916F01B70190E068
:100970000E94CB0551105A94F1E08F1A9108BFCF15
:10098000843619F0893609F077C0F80137FE6BC05C
:1009900060817181828193810C5F1F4FF32DFF76FF
:1009A0003F2E97FF09C090958095709561957F4F78
:1009B0008F4F9F4F689437F82AE030E0A5010E94DE
:1009C000FB05C82ECA188C2C432C36FE0CC0E894AC
:1009D00040F8C91440F434FE05C032FC03C0F32DC6
:1009E000FE7E4F2E892C44FE95C0FE01EC0DF11DBC
:1009F0008081803309F087C0242D297E422E842DEA
:100A00008870582E43FC95C040FE8FC09C2C8214E9
:100A100018F42C0C922C981844FE91C0B70180E376
:100A200090E00E94CB0542FE09C088E790E041FEBD
:100A300002C088E590E0B7010E94CB05C91408F414
:100A40008AC0CA94D12C9FEFC91AD90ACA0CDB1CE0
:100A5000F60182916F01B70190E00E94CB05AC14C2
:100A6000BD04B1F74FCF60817181072E000C880B58
:100A7000990B0E5F1F4F92CFD32CE894D4F82AE045
:100A800030E0853739F1232D297FD22E8F3601F1C1
:100A900048F48835A9F0F701868197812B96E2E129
:100AA0000C947506803749F08837A9F7D4FE02C048
:100AB0006894D2F820E130E00DC06894D4F8F6CF05
:100AC00034FE03C0822F8660D82E20E132E002C0BF
:100AD00028E030E0F801D7FE0FC06081718182818B
:100AE00093810C5F1F4FA5010E94FB05C82ECA18F9
:100AF0003D2CE89437F867CF6081718190E080E009
:100B00000E5F1F4FF0CF42FC02C0839478CF8394D6
:100B1000839475CF842D867809F471CFF6CFB70111
:100B200080E290E00E94CB0583948214C0F3512CA4
:100B300073CF522C5818821408F46ECFF8CF842D3E
:100B4000867809F47BCF8BE241FE80E247FC8DE2A0
:100B5000B70190E071CFB70180E390E00E94CB0530
:100B60009A946CCF8FEF9FEF99CFFC010590615065
:100B700070400110D8F7809590958E0F9F1F0895B3
:100B8000FC016150704001900110D8F7809590955C
:100B90008E0F9F1F08950F931F93CF93DF93182FEE
:100BA000092FEB018B8181FD09C01FEF0FEF812F12
:100BB000902FDF91CF911F910F91089582FF14C064
:100BC0002E813F818C819D81281739073CF4E88173
:100BD000F981CF0101969983888310838E819F814B
:100BE00001969F838E83E3CFE885F985812F099550
:100BF000892BA1F3DACFFA01AA27283051F120314D
:100C000081F1E8946F936E7F6E5F7F4F8F4F9F4FA0
:100C1000AF4FB1E03ED0B4E03CD0670F781F891FE2
:100C20009A1FA11D680F791F8A1F911DA11D6A0FB0
:100C3000711D811D911DA11D20D009F468943F9163
:100C40002AE0269F11243019305D3193DEF6CF0162
:100C50000895462F4770405D4193B3E00FD0C9F728
:100C6000F6CF462F4F70405D4A3318F0495D31FD95
:100C70004052419302D0A9F7EACFB4E0A6959795E8
:100C8000879577956795BA95C9F7009761057105BE
:100C900008959B01AC010A2E069457954795379508
:100CA0002795BA95C9F7620F731F841F951FA01D62
:100CB00008952F923F924F925F926F927F928F9200
:100CC0009F92AF92BF92CF92DF92EF92FF920F93DB
:100CD0001F93CF93DF93CDB7DEB7CA1BDB0B0FB6E5
:100CE000F894DEBF0FBECDBF09942A8839884888A2
:100CF0005F846E847D848C849B84AA84B984C88438
:100D0000DF80EE80FD800C811B81AA81B981CE0F2E
:100D1000D11D0FB6F894DEBF0FBECDBFED01089513
:040D2000F894FFCF75
:100D2400000083008B0093009C00A500B000B90074
:100D3400C400D000DC00E900F7000601150126011B
:100D440037014A015D01720188019F01B801D20196
:100D5400EE010B027E018101840187018A018D016C
:100D640090019301960199019C019F01A2018101C7
:100D7400840187018A018D019001930196019901F3
:100D84009C019F01A2018101111112141412110F6F
:100D94000D0D0F11110F0F000000000000012020A5
:100DA4000043200043230044200044230045200046
:100DB40046200046230047200047230041200041ED
:100DC40023004220004A656E6E610025642F25646D
:0E0DD4002F2564003E003C0031003200330049
:00000001FF
